:100000000C945D000C9485000C9485000C94850084
:100010000C9485000C9485000C9485000C9485004C
:100020000C9485000C9485000C9485000C940B03B3
:100030000C94A7020C9485000C9485000C94850008
:100040000C9405020C9485000C9475020C944F02DC
:100050000C9485000C9485000C9485000C9485000C
:100060000C9485000C94850000000008000201003B
:100070000003040700000000000000000000000072
:10008000250028002B0000000000240027002A0083
:10009000040404040404040402020202020203032E
:1000A0000303030301020408102040800102040836
:1000B00010200102040810201D0411241FBECFEFE0
:1000C000D8E0DEBFCDBF11E0A0E0B1E0EEEAF8E09D
:1000D00002C005900D92A231B107D9F721E0A2E14B
:1000E000B1E001C01D92A93BB207E1F710E0CDE5F8
:1000F000D0E004C02197FE010E944A04CC35D1070C
:10010000C9F70E9453030C9455040C94000090E02E
:10011000FC01EC55FF4F2491FC01E057FF4F849107
:10012000882399F090E0880F991FFC01EA57FF4F50
:10013000A591B491FC01E458FF4F859194918FB73C
:10014000F894EC91E22BEC938FBF089590E0FC01C2
:10015000E859FF4F2491FC01EC55FF4F3491FC010D
:10016000E057FF4FE491EE2309F43CC0222339F11C
:10017000233091F038F42130A9F0223001F584B514
:100180008F7D12C0273091F02830A1F02430B9F4CF
:10019000809180008F7D03C0809180008F77809355
:1001A00080000DC084B58F7784BD09C08091B000F8
:1001B0008F7703C08091B0008F7D8093B000F0E016
:1001C000EE0FFF1FE458FF4FA591B4919FB7F8942D
:1001D000611104C08C913095382302C0EC913E2B04
:1001E0003C939FBF0895CF92DF92EF92FF920F93BF
:1001F0001F93CF93DF936C017A018B01C0E0D0E0B5
:10020000CE15DF0581F0D8016D918D01D601ED91FC
:10021000FC910190F081E02DC6010995892B11F028
:100220002196EECF7E01C701DF91CF911F910F91F3
:10023000FF90EF90DF90CF900895089580E090E0D8
:100240000895FC01538D448D252F30E0842F90E0DC
:10025000821B930B541710F0CF96089501970895C1
:10026000FC01918D828D981761F0828DDF01A80FBE
:10027000B11D5D968C91928D9F5F9F73928F90E0E0
:1002800008958FEF9FEF0895FC01918D828D98174F
:1002900031F0828DE80FF11D858D90E008958FEF8C
:1002A0009FEF0895FC01918D228D892F90E0805C55
:1002B0009F4F821B91098F739927089583E191E0E5
:1002C0000E94520121E0892B09F420E0822F089539
:1002D000FC01848DDF01A80FB11DA35ABF4F2C91E3
:1002E000848D90E001968F739927848FA689B789B2
:1002F0002C93A089B1898C91837080648C93938DA9
:10030000848D981306C00288F389E02D80818F7D4B
:1003100080830895EF92FF920F931F93CF93DF9303
:10032000EC0181E0888F9B8D8C8D981305C0E88946
:10033000F989808185FD26C0F62E0B8D10E00F5FB8
:100340001F4F0F731127E02E8C8DE8120CC00FB6D3
:1003500007FCFACFE889F989808185FFF5CFCE01C6
:100360000E946801F1CF8B8DFE01E80FF11DE35A69
:10037000FF4FF0829FB7F8940B8FEA89FB89808149
:1003800080620AC09FB7F894EE89FF896083E8898C
:10039000F98980818370806480839FBF81E090E0D1
:1003A000DF91CF911F910F91FF90EF900895CF9320
:1003B000DF93EC01888D8823C9F0EA89FB8980816D
:1003C00085FD05C0A889B9898C9186FD0FC00FB63F
:1003D00007FCF5CF808185FFF2CFA889B9898C9180
:1003E00085FFEDCFCE010E946801E7CFDF91CF916D
:1003F000089580E090E0892B29F00E945E01811130
:100400000C94000008950E9450041F920F920FB6A2
:100410000F9211242F933F938F939F93AF93BF938A
:100420008091B5019091B601A091B701B091B8014A
:100430003091B40123E0230F2D3720F40196A11D44
:10044000B11D05C026E8230F0296A11DB11D209302
:10045000B4018093B5019093B601A093B701B09316
:10046000B8018091B0019091B101A091B201B09119
:10047000B3010196A11DB11D8093B0019093B1010C
:10048000A093B201B093B301BF91AF919F918F91AF
:100490003F912F910F900FBE0F901F9018951F92B4
:1004A0000F920FB60F9211242F933F934F935F93A8
:1004B0006F937F938F939F93AF93BF93EF93FF932C
:1004C00083E191E00E946801FF91EF91BF91AF91AC
:1004D0009F918F917F916F915F914F913F912F915C
:1004E0000F900FBE0F901F9018951F920F920FB68E
:1004F0000F9211242F938F939F93EF93FF93E0918B
:100500002301F09124018081E0912901F0912A01D9
:1005100082FD12C0908180912C018F5F8F7320919A
:100520002D01821751F0E0912C01F0E0ED5EFE4FBD
:10053000958F80932C0101C08081FF91EF919F9155
:100540008F912F910F900FBE0F901F9018951F92B3
:100550000F920FB60F9211242F933F934F935F93F7
:100560006F937F938F939F93AF93BF93EF93FF937B
:100570008091120181111EC060E089E00E94A600F6
:1005800061E08AE00E94A60060E088E00E94A60088
:1005900061E087E00E94A60060E083E00E94A60080
:1005A00061E084E00E94A60060E085E00E94A60071
:1005B00061E01DC061E089E00E94A60060E08AE081
:1005C0000E94A60061E088E00E94A60060E087E04B
:1005D0000E94A60061E083E00E94A60060E084E043
:1005E0000E94A60061E085E00E94A60060E086E02F
:1005F0000E94A600FF91EF91BF91AF919F918F91C3
:100600007F916F915F914F913F912F910F900FBE0E
:100610000F901F9018951F920F920FB60F921124F2
:100620002F933F934F935F936F937F938F939F93FA
:10063000AF93BF93EF93FF9361E089E00E94A60020
:1006400061E08AE00E94A60060E088E00E94A600C7
:1006500060E087E00E94A60061E086E00E94A600BC
:1006600061E085E00E94A60060E084E00E94A600B0
:1006700060E083E00E94A6009091120181E089274A
:1006800080931201FF91EF91BF91AF919F918F9154
:100690007F916F915F914F913F912F910F900FBE7E
:1006A0000F901F901895789484B5826084BD84B5AE
:1006B000816084BD85B5826085BD85B5816085BD5D
:1006C00080916E00816080936E0010928100809115
:1006D000810082608093810080918100816080939D
:1006E0008100809180008160809380008091B100C2
:1006F00084608093B1008091B00081608093B000ED
:1007000080917A00846080937A0080917A00826080
:1007100080937A0080917A00816080937A00809142
:100720007A00806880937A001092C100E0912301E2
:10073000F091240182E08083E0911F01F09120017B
:100740001082E0912101F091220180E180831092DA
:100750002B01E0912701F091280196E09083E09130
:100760002501F0912601808180618083E09125013F
:10077000F0912601808188608083E0912501F091CD
:100780002601808180688083E0912501F091260117
:1007900080818F7D808310928000109281008AE09A
:1007A0008093810010926F0090936F0080E29EE42E
:1007B000909389008093880080E797E190938B0065
:1007C00080938A0087E00E94870088E00E9487006B
:1007D00089E00E9487008AE00E94870083E00E94EF
:1007E000870084E00E94870085E00E94870086E001
:1007F0000E94870060E087E00E94A60060E088E039
:100800000E94A60061E089E00E94A60061E08AE003
:100810000E94A60060E083E00E94A60060E084E001
:100820000E94A60061E085E00E94A60061E086E0EB
:100830000E94A6000E94F901FDCFE3E1F1E01382DE
:10084000128288EE93E0A0E0B0E084839583A683D3
:10085000B78384E091E09183808385EC90E0958775
:10086000848784EC90E09787868780EC90E0918B7A
:10087000808B81EC90E0938B828B82EC90E0958B67
:10088000848B86EC90E0978B868B118E128E138E64
:10089000148E0895EE0FFF1F0590F491E02D09943A
:0E08A00081E090E0F8940C945504F894FFCF9A
:1008AE00000000008A01F3002101D701520130013E
:0208BE004401F3
:00000001FF
